{"abi":[{"type":"function","name":"audioRequesters","inputs":[{"name":"","type":"bytes32","internalType":"bytes32"}],"outputs":[{"name":"","type":"address","internalType":"address"}],"stateMutability":"view"},{"type":"function","name":"depositForFees","inputs":[],"outputs":[],"stateMutability":"payable"},{"type":"function","name":"generatedAudio","inputs":[{"name":"","type":"address","internalType":"address"},{"name":"","type":"uint256","internalType":"uint256"}],"outputs":[{"name":"uri","type":"string","internalType":"string"},{"name":"contentHash","type":"bytes32","internalType":"bytes32"},{"name":"timestamp","type":"uint256","internalType":"uint256"}],"stateMutability":"view"},{"type":"function","name":"notes","inputs":[{"name":"","type":"address","internalType":"address"}],"outputs":[{"name":"contentHash","type":"bytes32","internalType":"bytes32"},{"name":"encryptedData","type":"bytes","internalType":"bytes"},{"name":"metadata","type":"bytes","internalType":"bytes"},{"name":"ed25519PubKey","type":"bytes32","internalType":"bytes32"}],"stateMutability":"view"},{"type":"function","name":"onAudioReady","inputs":[{"name":"jobId","type":"bytes32","internalType":"bytes32"},{"name":"responseData","type":"bytes","internalType":"bytes"}],"outputs":[],"stateMutability":"nonpayable"},{"type":"function","name":"requestSynthesizedNote","inputs":[{"name":"executor","type":"address","internalType":"address"},{"name":"ttl","type":"uint256","internalType":"uint256"},{"name":"textPrompt","type":"string","internalType":"string"},{"name":"outputStorageRef","type":"tuple","internalType":"struct Dhvani.StorageRef","components":[{"name":"platform","type":"string","internalType":"string"},{"name":"path","type":"string","internalType":"string"},{"name":"keyRef","type":"string","internalType":"string"}]},{"name":"encryptedSecrets","type":"bytes[]","internalType":"bytes[]"}],"outputs":[],"stateMutability":"nonpayable"},{"type":"function","name":"storeNote","inputs":[{"name":"_contentHash","type":"bytes32","internalType":"bytes32"},{"name":"_encryptedData","type":"bytes","internalType":"bytes"},{"name":"_metadata","type":"bytes","internalType":"bytes"},{"name":"_ed25519PubKey","type":"bytes32","internalType":"bytes32"}],"outputs":[],"stateMutability":"nonpayable"},{"type":"function","name":"verifyNote","inputs":[{"name":"recomputedHash","type":"bytes32","internalType":"bytes32"},{"name":"signature","type":"bytes","internalType":"bytes"}],"outputs":[],"stateMutability":"nonpayable"},{"type":"event","name":"AudioFailed","inputs":[{"name":"taskId","type":"bytes32","indexed":true,"internalType":"bytes32"},{"name":"user","type":"address","indexed":true,"internalType":"address"},{"name":"errorMsg","type":"string","indexed":false,"internalType":"string"}],"anonymous":false},{"type":"event","name":"AudioReady","inputs":[{"name":"taskId","type":"bytes32","indexed":true,"internalType":"bytes32"},{"name":"user","type":"address","indexed":true,"internalType":"address"},{"name":"uri","type":"string","indexed":false,"internalType":"string"}],"anonymous":false},{"type":"event","name":"AudioRequested","inputs":[{"name":"taskId","type":"bytes32","indexed":true,"internalType":"bytes32"},{"name":"user","type":"address","indexed":true,"internalType":"address"}],"anonymous":false},{"type":"event","name":"NoteStored","inputs":[{"name":"user","type":"address","indexed":true,"internalType":"address"},{"name":"contentHash","type":"bytes32","indexed":false,"internalType":"bytes32"}],"anonymous":false},{"type":"event","name":"NoteVerified","inputs":[{"name":"user","type":"address","indexed":true,"internalType":"address"},{"name":"matchedHash","type":"bytes32","indexed":false,"internalType":"bytes32"}],"anonymous":false}],"bytecode":{"object":"0x60808060405234601557611511908161001a8239f35b5f80fdfe60806040526004361015610011575f80fd5b5f5f3560e01c8063805895aa146107ec5780639ea2fd441461059f578063a220b4ef14610497578063bd93644a14610413578063e145cde01461019f578063e788eda91461016d578063ed33d3bd146100e85763ff0f566714610072575f80fd5b346100e55761008036610ea2565b90735a16214ff555848411544b005f7ac063742f39f633036100a8576100a5926111a1565b80f35b60405162461bcd60e51b8152602060048201526015602482015274756e617574686f72697a65642063616c6c6261636b60581b6044820152606490fd5b80fd5b505f3660031901126101695773532f0df0896f353d8c3dd8cc134e8129da2a39483b156101695760405163b6b55f2560e01b8152620186a060048201525f816024813473532f0df0896f353d8c3dd8cc134e8129da2a39485af1801561015e57610150575080f35b61015c91505f90610f8b565b005b6040513d5f823e3d90fd5b5f80fd5b34610169576020366003190112610169576004355f526001602052602060018060a01b0360405f205416604051908152f35b34610169576080366003190112610169576004356024356001600160401b038111610169576101d2903690600401610e75565b906044356001600160401b03811161016957610213916101f9610222923690600401610e75565b9390916040519561020987610f70565b878752369161108b565b9260208501938452369161108b565b6040830190815260608301916064358352335f525f60205260405f20935184556001840190518051906001600160401b03821161039c5761026d826102678554610f02565b85611125565b602090601f83116001146103b05761029c92915f918361032b575b50508160011b915f199060031b1c19161790565b90555b51805160028401916001600160401b03821161039c576102c3826102678554610f02565b602090601f83116001146103365791806102f69260039695945f9261032b5750508160011b915f199060031b1c19161790565b90555b519101556040519081527f7aaedd12bac58f1801826aa24f95f86556f78e0844687e11f53f79d598bb7ece60203392a2005b015190508880610288565b90601f19831691845f52815f20925f5b81811061038457509160019391856003989796941061036d575b505050811b0190556102f9565b01515f1983881b60f8161c19169055878080610360565b92936020600181928786015181550195019301610346565b634e487b7160e01b5f52604160045260245ffd5b90601f19831691845f52815f20925f5b8181106103fb57509084600195949392106103e3575b505050811b01905561029f565b01515f1960f88460031b161c191690558780806103d6565b929360206001819287860151815501950193016103c0565b34610169576020366003190112610169576001600160a01b03610434610e5f565b165f525f60205260405f20805461044d60018301610fd0565b9161048d600361045f60028401610fd0565b9201549161047f6040519586958652608060208701526080860190610fac565b908482036040860152610fac565b9060608301520390f35b34610169576040366003190112610169576104b0610e5f565b6001600160a01b03165f908152600260205260409020805460243590811015610169576104dc91610ed5565b506040515f9180546104ed81610f02565b808452906001811690811561057b5750600114610542575b5061051582610533940383610f8b565b60026001820154910154604051938493606085526060850190610fac565b91602084015260408301520390f35b9250805f5260205f205f905b848210610565575082016020019250610515610505565b600181602092548385880101520191019061054e565b60ff191660208086019190915291151560051b840190910193506105159050610505565b34610169576105ad36610ea2565b335f525f60205260405f20916003604051936105c885610f70565b805485526105d860018201610fd0565b60208601526105e960028201610fd0565b6040860152015492606081019384528051156107b65784905103610781576106716106a360205f959486955194604051958387015282865261062c604087610f8b565b604051918984840152838352610643604084610f8b565b8060405196879461065f8787019a60608c526080880190610fac565b868103601f1901604088015290610fac565b848103601f19016060860152818152928584013787848284010152601f8019910116010301601f198101835282610f8b565b519060095afa6106b16110f6565b9080610777575b1561073c5760208180518101031261016957602001515f1901610703576040519081527f7bc0d88e25892351633fadf9ad21f24182338f93b9d955aea2e11b9cf8c8dfd160203392a2005b60405162461bcd60e51b8152602060048201526011602482015270496e76616c6964207369676e617475726560781b6044820152606490fd5b60405162461bcd60e51b815260206004820152601360248201527219590c8d4d4c4e4818d85b1b0819985a5b1959606a1b6044820152606490fd5b50805115156106b8565b60405162461bcd60e51b815260206004820152600d60248201526c090c2e6d040dad2e6dac2e8c6d609b1b6044820152606490fd5b60405162461bcd60e51b815260206004820152600e60248201526d139bdd19481b9bdd08199bdd5b9960921b6044820152606490fd5b346101695760a036600319011261016957610805610e5f565b6044356001600160401b03811161016957610824903690600401610e75565b9091606435916001600160401b038311610169576060600319843603011261016957608435926001600160401b0384116101695736602385011215610169578360040135916001600160401b0383116101695760248360051b860101953687116101695761089391369161108b565b946040948551916108a48784610f8b565b601a83527f4c697175696441492f4c464d322e352d417564696f2d312e354200000000000060208401528651936108da85610f3a565b80600401356001600160401b038111610169576108fd90600436918401016110c1565b855260248101356001600160401b0381116101695761092290600436918401016110c1565b60208601526044810135906001600160401b03821161016957600461094a92369201016110c1565b87850152610957856110df565b9461096488519687610f8b565b85526024820191602086015b828410610e30575050505084516109878682610f8b565b600d81526c1055511253d7d51054d2d7d251609a1b60208201528551916109ae8784610f8b565b60018352601f1987015f5b818110610def5750508651976109ce89610f55565b5f8952602089015260209787516109e58a82610f8b565b5f8152888201525f60608201525f60808201525f60a08201525f60c0820152610a0d84611443565b52610a1783611443565b5086519161014083018381106001600160401b0382111761039c57885260028352612710838a01525f838901819052606084018190526080840181905260a0840181905260c0840181905260e08401819052610100840152875188928a929091610a818482610f8b565b5f815261012086015282610a93611450565b610a9b611450565b86516001600160a01b03909c16838d01526102608c88015290610ac3906102808d0190611483565b60243560608d01528b8103601f190160808d0152610ae091611483565b8a8103601f19810160a08d01525f825260c08c016005905260e08c016103e890526101008c015201610b1191610fac565b306101208a0152600162f0a99960e01b03196101408a01526207a1206101608a0152633b9aca006101808a01526305f5e1006101a08a01525f6101c08a0152888103601f19016101e08a0152610b6691610fac565b601f198882030161020089015284518082528282019183808360051b8301019701925f915b838310610d6057505050505094610c938795610c4b610cb4966101406101205f9c98610ca6988e9d601f198c8703016102208d015260ff835116865263ffffffff81840151169086015263ffffffff81830151169085015263ffffffff606082015116606085015260808101511515608085015261ffff60a08201511660a085015261ffff60c08201511660c085015263ffffffff60e08201511660e085015260ff61010082015116610100850152015191816101208201520190610fac565b601f19868203016102408701528a610c838d610c708551606086526060860190610fac565b9060208601519085830390860152610fac565b920151908b818403910152610fac565b838103601f190161026085015290611483565b03601f198101835282610f8b565b8481519101826108195af1610cc76110f6565b9015610d1c5780836001925191012092835f52525f20336bffffffffffffffffffffffff60a01b82541617905533907fc68674f56aa485fdf7bb21319314999873fb5ae49419d17fcb0169a427587c795f80a3005b815162461bcd60e51b815260048101849052601c60248201527f417564696f20707265636f6d70696c652063616c6c206661696c6564000000006044820152606490fd5b9295946001929581929599601f1986820301875260c080610dad8d519460ff8651168552610d9b8787015160e08988015260e0870190610fac565b90808701519086830390870152610fac565b936060810151606085015263ffffffff608082015116608085015263ffffffff60a08201511660a0850152015115159101529801930193018b938b9592610b8b565b6020908951610dfd81610f55565b5f815260608382015260608b8201525f60608201525f60808201525f60a08201525f60c0820152828288010152016109b9565b83356001600160401b03811161016957602091610e548392602436918701016110c1565b815201930192610970565b600435906001600160a01b038216820361016957565b9181601f84011215610169578235916001600160401b038311610169576020838186019501011161016957565b9060406003198301126101695760043591602435906001600160401b03821161016957610ed191600401610e75565b9091565b8054821015610eee575f52600360205f20910201905f90565b634e487b7160e01b5f52603260045260245ffd5b90600182811c92168015610f30575b6020831014610f1c57565b634e487b7160e01b5f52602260045260245ffd5b91607f1691610f11565b606081019081106001600160401b0382111761039c57604052565b60e081019081106001600160401b0382111761039c57604052565b608081019081106001600160401b0382111761039c57604052565b90601f801991011681019081106001600160401b0382111761039c57604052565b805180835260209291819084018484015e5f828201840152601f01601f1916010190565b9060405191825f825492610fe384610f02565b808452936001811690811561104e575060011461100a575b5061100892500383610f8b565b565b90505f9291925260205f20905f915b818310611032575050906020611008928201015f610ffb565b6020919350806001915483858901015201910190918492611019565b90506020925061100894915060ff191682840152151560051b8201015f610ffb565b6001600160401b03811161039c57601f01601f191660200190565b92919261109782611070565b916110a56040519384610f8b565b829481845281830111610169578281602093845f960137010152565b9080601f83011215610169578160206110dc9335910161108b565b90565b6001600160401b03811161039c5760051b60200190565b3d15611120573d9061110782611070565b916111156040519384610f8b565b82523d5f602084013e565b606090565b919091601f8311611136575b505050565b81831161114257505050565b5f5260205f206020601f830160051c921061117b575b81601f9101920160051c03905f5b82811015611131575f82820155600101611166565b5f9150611158565b3590811515820361016957565b359063ffffffff8216820361016957565b5f818152600160205260409020546001600160a01b03169290919081019061010081830312610169576111d381611183565b60208201356001600160401b03811161016957836111f29184016110c1565b5060408201356001600160401b03811161016957836112129184016110c1565b9261121f60808401611183565b5061122c60a08401611190565b5061123960c08401611190565b5060e0830135906001600160401b038211610169576112599184016110c1565b906114075750835f52600260205260405f206040519161127883610f3a565b8383526060602084019101358152604083019142835280546801000000000000000081101561039c576112b091600182018155610ed5565b9390936113f457518051906001600160401b03821161039c576112dd826112d78754610f02565b87611125565b602090601f83116001146113675792611336836002947fd48630235def597f3cc5f718503f4fad0dd1efe21959c4a4ca8b9d247b317e8b99979461135799975f9261135c5750508160011b915f199060031b1c19161790565b84555b51600184015551910155604051918291602083526020830190610fac565b0390a3565b015190505f80610288565b90601f19831691865f52815f20925f5b8181106113dc5750937fd48630235def597f3cc5f718503f4fad0dd1efe21959c4a4ca8b9d247b317e8b98969361135798969360019383600298106113c4575b505050811b018455611339565b01515f1960f88460031b161c191690555f80806113b7565b92936020600181928786015181550195019301611377565b634e487b7160e01b5f525f60045260245ffd5b7f22471f52152ce1ccbb50c878bc1632b2a80c6d11fef8a0996145488d328029d692506113579150604051918291602083526020830190610fac565b805115610eee5760200190565b6040519061145f602083610f8b565b5f80835282815b82811061147257505050565b806060602080938501015201611466565b9080602083519182815201916020808360051b8301019401925f915b8383106114ae57505050505090565b90919293946020806114cc600193601f198682030187528951610fac565b9701930193019193929061149f56fea2646970667358221220c3c06904c18dcd151c3a4cfa1b1bbc3900e93ed36898aa7c86d224b7ffa3c1ca64736f6c63430008230033","linkReferences":{}},"methodIdentifiers":{"audioRequesters(bytes32)":"e788eda9","depositForFees()":"ed33d3bd","generatedAudio(address,uint256)":"a220b4ef","notes(address)":"bd93644a","onAudioReady(bytes32,bytes)":"ff0f5667","requestSynthesizedNote(address,uint256,string,(string,string,string),bytes[])":"805895aa","storeNote(bytes32,bytes,bytes,bytes32)":"e145cde0","verifyNote(bytes32,bytes)":"9ea2fd44"},"id":20}